:1000000023C032C031C030C02FC06BC02DC02CC047
:100010002BC02AC029C028C027C026C025C0000088
:100020000000370000000000380002020202020255
:10003000020202020102040810202004100801023A
:10004000000004000000000011241FBECFE5D1E035
:10005000DEBFCDBF20E0A0E6B0E001C01D92AD360E
:10006000B207E1F788D02EC1CBCFCF93DF9390E0DA
:10007000FC01EC5CFF4F2491865D9F4FFC01849155
:100080008823D1F090E0880F991FFC01E25EFF4FBA
:10009000A591B491FC01EC5DFF4FC591D491611124
:1000A0000EC09FB7F8948C91E22FE0958E238C932D
:1000B0002881E223E8839FBFDF91CF9108958FB716
:1000C000F894EC91E22BEC938FBFF6CF863008F0DA
:1000D0008650877087B9369A3699FECF84B195B12C
:1000E00008951F920F920FB60F9211242F933F93F2
:1000F0008F939F93AF93BF938091690090916A0013
:10010000A0916B00B0916C003091680026E0230F45
:100110002D3758F50296A11DB11D209368008093DC
:10012000690090936A00A0936B00B0936C0080917B
:10013000640090916500A0916600B09167000196FF
:10014000A11DB11D8093640090936500A09366008B
:10015000B0936700BF91AF919F918F913F912F9185
:100160000F900FBE0F901F90189529E8230F03964C
:10017000A11DB11DD2CF78948AB582608ABD8AB59F
:1001800081608ABD83B7826083BF83B7816083BF8C
:1001900089B7826089BF80B7826080BF80B7816085
:1001A00080BF329A319A3098379A8CB580648CBD72
:1001B00083EA8ABD81E083BF80BF80E68CBD61E0B9
:1001C00081E053DF60E087E050DF60E088E04DDFF2
:1001D00060E089E04ADF8DEC9CECACE0B1E4809318
:1001E000600090936100A0936200B0936300CFE33E
:1001F000D0E094E1B92E25E3E22E20E0F22E3BE29E
:10020000C32E30E0D32E00E010E087E05FDF88E00F
:100210005DDF89E05BDF61E081E027DFFE01849143
:10022000823009F436C010F5813049F1FE01849125
:10023000F7019491F6012491222329F1882331F0CA
:10024000823009F43CC078F58130A9F1E22FF0E06A
:10025000EE0FFF1FEC5DFF4FA591B4918FB7F8949F
:100260002C91909592239C938FBF0DC08330B1F059
:100270008430E1F68CB580628CBDBBBC04C08AB50D
:1002800080688ABDB9BC0115110509F4BECFB8DE7E
:10029000BCCF8AB580628ABDB8BCF5CF8CB5806210
:1002A0008CBDBEBCF0CF833011F0843079F68CB5B4
:1002B0008F7D8CBDCBCF8AB58F778ABDC7CF8AB5EE
:0802C0008F7DFBCFF894FFCF06
:00000001FF
